{
  "address": "0x5c53b40EBf31DA8fFe63f075b681b3303e9Dbc02",
  "abi": [
    {
      "inputs": [
        {
          "internalType": "contract ERC20",
          "name": "_asset",
          "type": "address"
        },
        {
          "internalType": "string",
          "name": "_name",
          "type": "string"
        },
        {
          "internalType": "string",
          "name": "_symbol",
          "type": "string"
        },
        {
          "internalType": "address",
          "name": "_owner",
          "type": "address"
        },
        {
          "internalType": "address",
          "name": "_guardian",
          "type": "address"
        },
        {
          "internalType": "address",
          "name": "_manager",
          "type": "address"
        },
        {
          "internalType": "address",
          "name": "_treasury",
          "type": "address"
        },
        {
          "internalType": "uint256",
          "name": "_perforamanceFee",
          "type": "uint256"
        },
        {
          "internalType": "address",
          "name": "postOffice",
          "type": "address"
        }
      ],
      "stateMutability": "nonpayable",
      "type": "constructor"
    },
    {
      "inputs": [],
      "name": "BridgeError",
      "type": "error"
    },
    {
      "inputs": [],
      "name": "EmergencyNotEnabled",
      "type": "error"
    },
    {
      "inputs": [],
      "name": "HarvestNotOpen",
      "type": "error"
    },
    {
      "inputs": [],
      "name": "MinLiquidity",
      "type": "error"
    },
    {
      "inputs": [],
      "name": "MissingMessages",
      "type": "error"
    },
    {
      "inputs": [],
      "name": "NotImplemented",
      "type": "error"
    },
    {
      "inputs": [],
      "name": "NotReady",
      "type": "error"
    },
    {
      "inputs": [],
      "name": "OnGoingHarvest",
      "type": "error"
    },
    {
      "inputs": [],
      "name": "SlippageExceeded",
      "type": "error"
    },
    {
      "inputs": [],
      "name": "VaultAlreadyAdded",
      "type": "error"
    },
    {
      "inputs": [
        {
          "internalType": "address",
          "name": "vault",
          "type": "address"
        }
      ],
      "name": "VaultNotAllowed",
      "type": "error"
    },
    {
      "inputs": [],
      "name": "ZeroAmount",
      "type": "error"
    },
    {
      "anonymous": false,
      "inputs": [
        {
          "indexed": false,
          "internalType": "address",
          "name": "vault",
          "type": "address"
        },
        {
          "indexed": false,
          "internalType": "uint16",
          "name": "chainId",
          "type": "uint16"
        }
      ],
      "name": "AddVault",
      "type": "event"
    },
    {
      "anonymous": false,
      "inputs": [
        {
          "indexed": true,
          "internalType": "address",
          "name": "owner",
          "type": "address"
        },
        {
          "indexed": true,
          "internalType": "address",
          "name": "spender",
          "type": "address"
        },
        {
          "indexed": false,
          "internalType": "uint256",
          "name": "value",
          "type": "uint256"
        }
      ],
      "name": "Approval",
      "type": "event"
    },
    {
      "anonymous": false,
      "inputs": [
        {
          "indexed": false,
          "internalType": "uint32",
          "name": "_fromChainId",
          "type": "uint32"
        },
        {
          "indexed": false,
          "internalType": "uint32",
          "name": "_toChainId",
          "type": "uint32"
        },
        {
          "indexed": false,
          "internalType": "uint256",
          "name": "amount",
          "type": "uint256"
        }
      ],
      "name": "BridgeAsset",
      "type": "event"
    },
    {
      "anonymous": false,
      "inputs": [
        {
          "indexed": false,
          "internalType": "address",
          "name": "vault",
          "type": "address"
        },
        {
          "indexed": false,
          "internalType": "bool",
          "name": "status",
          "type": "bool"
        }
      ],
      "name": "ChangeVaultStatus",
      "type": "event"
    },
    {
      "anonymous": false,
      "inputs": [
        {
          "indexed": true,
          "internalType": "address",
          "name": "sender",
          "type": "address"
        },
        {
          "indexed": true,
          "internalType": "address",
          "name": "owner",
          "type": "address"
        },
        {
          "indexed": false,
          "internalType": "uint256",
          "name": "assets",
          "type": "uint256"
        },
        {
          "indexed": false,
          "internalType": "uint256",
          "name": "shares",
          "type": "uint256"
        }
      ],
      "name": "Deposit",
      "type": "event"
    },
    {
      "anonymous": false,
      "inputs": [
        {
          "indexed": false,
          "internalType": "address",
          "name": "owner",
          "type": "address"
        },
        {
          "indexed": false,
          "internalType": "address",
          "name": "pendingOwner",
          "type": "address"
        }
      ],
      "name": "OwnershipTransferInitiated",
      "type": "event"
    },
    {
      "anonymous": false,
      "inputs": [
        {
          "indexed": false,
          "internalType": "address",
          "name": "oldOwner",
          "type": "address"
        },
        {
          "indexed": false,
          "internalType": "address",
          "name": "newOwner",
          "type": "address"
        }
      ],
      "name": "OwnershipTransferred",
      "type": "event"
    },
    {
      "anonymous": false,
      "inputs": [
        {
          "indexed": true,
          "internalType": "address",
          "name": "caller",
          "type": "address"
        },
        {
          "indexed": true,
          "internalType": "address",
          "name": "owner",
          "type": "address"
        },
        {
          "indexed": false,
          "internalType": "uint256",
          "name": "shares",
          "type": "uint256"
        }
      ],
      "name": "RequestWithdraw",
      "type": "event"
    },
    {
      "anonymous": false,
      "inputs": [
        {
          "indexed": true,
          "internalType": "bytes32",
          "name": "role",
          "type": "bytes32"
        },
        {
          "indexed": true,
          "internalType": "bytes32",
          "name": "previousAdminRole",
          "type": "bytes32"
        },
        {
          "indexed": true,
          "internalType": "bytes32",
          "name": "newAdminRole",
          "type": "bytes32"
        }
      ],
      "name": "RoleAdminChanged",
      "type": "event"
    },
    {
      "anonymous": false,
      "inputs": [
        {
          "indexed": true,
          "internalType": "bytes32",
          "name": "role",
          "type": "bytes32"
        },
        {
          "indexed": true,
          "internalType": "address",
          "name": "account",
          "type": "address"
        },
        {
          "indexed": true,
          "internalType": "address",
          "name": "sender",
          "type": "address"
        }
      ],
      "name": "RoleGranted",
      "type": "event"
    },
    {
      "anonymous": false,
      "inputs": [
        {
          "indexed": true,
          "internalType": "bytes32",
          "name": "role",
          "type": "bytes32"
        },
        {
          "indexed": true,
          "internalType": "address",
          "name": "account",
          "type": "address"
        },
        {
          "indexed": true,
          "internalType": "address",
          "name": "sender",
          "type": "address"
        }
      ],
      "name": "RoleRevoked",
      "type": "event"
    },
    {
      "anonymous": false,
      "inputs": [
        {
          "indexed": false,
          "internalType": "uint256",
          "name": "performanceFee",
          "type": "uint256"
        }
      ],
      "name": "SetPerformanceFee",
      "type": "event"
    },
    {
      "anonymous": false,
      "inputs": [
        {
          "indexed": true,
          "internalType": "address",
          "name": "treasury",
          "type": "address"
        }
      ],
      "name": "SetTreasury",
      "type": "event"
    },
    {
      "anonymous": false,
      "inputs": [
        {
          "indexed": true,
          "internalType": "address",
          "name": "from",
          "type": "address"
        },
        {
          "indexed": true,
          "internalType": "address",
          "name": "to",
          "type": "address"
        },
        {
          "indexed": false,
          "internalType": "uint256",
          "name": "value",
          "type": "uint256"
        }
      ],
      "name": "Transfer",
      "type": "event"
    },
    {
      "anonymous": false,
      "inputs": [
        {
          "indexed": true,
          "internalType": "address",
          "name": "sender",
          "type": "address"
        },
        {
          "indexed": true,
          "internalType": "address",
          "name": "receiver",
          "type": "address"
        },
        {
          "indexed": true,
          "internalType": "address",
          "name": "owner",
          "type": "address"
        },
        {
          "indexed": false,
          "internalType": "uint256",
          "name": "assets",
          "type": "uint256"
        },
        {
          "indexed": false,
          "internalType": "uint256",
          "name": "shares",
          "type": "uint256"
        }
      ],
      "name": "Withdraw",
      "type": "event"
    },
    {
      "inputs": [],
      "name": "DEFAULT_ADMIN_ROLE",
      "outputs": [
        {
          "internalType": "bytes32",
          "name": "",
          "type": "bytes32"
        }
      ],
      "stateMutability": "view",
      "type": "function"
    },
    {
      "inputs": [],
      "name": "GUARDIAN",
      "outputs": [
        {
          "internalType": "bytes32",
          "name": "",
          "type": "bytes32"
        }
      ],
      "stateMutability": "view",
      "type": "function"
    },
    {
      "inputs": [],
      "name": "MANAGER",
      "outputs": [
        {
          "internalType": "bytes32",
          "name": "",
          "type": "bytes32"
        }
      ],
      "stateMutability": "view",
      "type": "function"
    },
    {
      "inputs": [],
      "name": "MIN_LIQUIDITY",
      "outputs": [
        {
          "internalType": "uint256",
          "name": "",
          "type": "uint256"
        }
      ],
      "stateMutability": "view",
      "type": "function"
    },
    {
      "inputs": [],
      "name": "acceptOwnership",
      "outputs": [],
      "stateMutability": "nonpayable",
      "type": "function"
    },
    {
      "inputs": [
        {
          "internalType": "address",
          "name": "_vault",
          "type": "address"
        },
        {
          "internalType": "uint16",
          "name": "_chainId",
          "type": "uint16"
        },
        {
          "internalType": "bool",
          "name": "_allowed",
          "type": "bool"
        }
      ],
      "name": "addVault",
      "outputs": [],
      "stateMutability": "nonpayable",
      "type": "function"
    },
    {
      "inputs": [
        {
          "internalType": "address",
          "name": "owner",
          "type": "address"
        },
        {
          "internalType": "address",
          "name": "spender",
          "type": "address"
        }
      ],
      "name": "allowance",
      "outputs": [
        {
          "internalType": "uint256",
          "name": "",
          "type": "uint256"
        }
      ],
      "stateMutability": "view",
      "type": "function"
    },
    {
      "inputs": [
        {
          "internalType": "address",
          "name": "spender",
          "type": "address"
        },
        {
          "internalType": "uint256",
          "name": "amount",
          "type": "uint256"
        }
      ],
      "name": "approve",
      "outputs": [
        {
          "internalType": "bool",
          "name": "",
          "type": "bool"
        }
      ],
      "stateMutability": "nonpayable",
      "type": "function"
    },
    {
      "inputs": [
        {
          "internalType": "address",
          "name": "account",
          "type": "address"
        }
      ],
      "name": "balanceOf",
      "outputs": [
        {
          "internalType": "uint256",
          "name": "",
          "type": "uint256"
        }
      ],
      "stateMutability": "view",
      "type": "function"
    },
    {
      "inputs": [
        {
          "internalType": "address",
          "name": "_vault",
          "type": "address"
        },
        {
          "internalType": "bool",
          "name": "_allowed",
          "type": "bool"
        }
      ],
      "name": "changeVaultStatus",
      "outputs": [],
      "stateMutability": "nonpayable",
      "type": "function"
    },
    {
      "inputs": [
        {
          "internalType": "uint256",
          "name": "shares",
          "type": "uint256"
        }
      ],
      "name": "convertToAssets",
      "outputs": [
        {
          "internalType": "uint256",
          "name": "",
          "type": "uint256"
        }
      ],
      "stateMutability": "view",
      "type": "function"
    },
    {
      "inputs": [
        {
          "internalType": "uint256",
          "name": "assets",
          "type": "uint256"
        }
      ],
      "name": "convertToShares",
      "outputs": [
        {
          "internalType": "uint256",
          "name": "",
          "type": "uint256"
        }
      ],
      "stateMutability": "view",
      "type": "function"
    },
    {
      "inputs": [],
      "name": "decimals",
      "outputs": [
        {
          "internalType": "uint8",
          "name": "",
          "type": "uint8"
        }
      ],
      "stateMutability": "view",
      "type": "function"
    },
    {
      "inputs": [
        {
          "internalType": "address",
          "name": "spender",
          "type": "address"
        },
        {
          "internalType": "uint256",
          "name": "subtractedValue",
          "type": "uint256"
        }
      ],
      "name": "decreaseAllowance",
      "outputs": [
        {
          "internalType": "bool",
          "name": "",
          "type": "bool"
        }
      ],
      "stateMutability": "nonpayable",
      "type": "function"
    },
    {
      "inputs": [
        {
          "internalType": "uint256",
          "name": "assets",
          "type": "uint256"
        },
        {
          "internalType": "address",
          "name": "receiver",
          "type": "address"
        }
      ],
      "name": "deposit",
      "outputs": [
        {
          "internalType": "uint256",
          "name": "shares",
          "type": "uint256"
        }
      ],
      "stateMutability": "nonpayable",
      "type": "function"
    },
    {
      "inputs": [
        {
          "components": [
            {
              "internalType": "address",
              "name": "vaultAddr",
              "type": "address"
            },
            {
              "internalType": "uint256",
              "name": "amount",
              "type": "uint256"
            }
          ],
          "internalType": "struct SectorCrossVault.Request[]",
          "name": "vaults",
          "type": "tuple[]"
        }
      ],
      "name": "depositIntoVaults",
      "outputs": [],
      "stateMutability": "nonpayable",
      "type": "function"
    },
    {
      "inputs": [
        {
          "internalType": "address",
          "name": "",
          "type": "address"
        }
      ],
      "name": "depositedVaults",
      "outputs": [
        {
          "internalType": "uint256",
          "name": "amount",
          "type": "uint256"
        },
        {
          "internalType": "uint16",
          "name": "chainId",
          "type": "uint16"
        },
        {
          "internalType": "bool",
          "name": "allowed",
          "type": "bool"
        }
      ],
      "stateMutability": "view",
      "type": "function"
    },
    {
      "inputs": [],
      "name": "emergencyWithdraw",
      "outputs": [],
      "stateMutability": "nonpayable",
      "type": "function"
    },
    {
      "inputs": [
        {
          "internalType": "uint256",
          "name": "expectedValue",
          "type": "uint256"
        },
        {
          "internalType": "uint256",
          "name": "maxDelta",
          "type": "uint256"
        }
      ],
      "name": "finalizeHarvest",
      "outputs": [],
      "stateMutability": "nonpayable",
      "type": "function"
    },
    {
      "inputs": [
        {
          "internalType": "bytes32",
          "name": "role",
          "type": "bytes32"
        }
      ],
      "name": "getRoleAdmin",
      "outputs": [
        {
          "internalType": "bytes32",
          "name": "",
          "type": "bytes32"
        }
      ],
      "stateMutability": "view",
      "type": "function"
    },
    {
      "inputs": [
        {
          "internalType": "address",
          "name": "user",
          "type": "address"
        }
      ],
      "name": "getWithdrawStatus",
      "outputs": [
        {
          "components": [
            {
              "internalType": "uint256",
              "name": "timestamp",
              "type": "uint256"
            },
            {
              "internalType": "uint256",
              "name": "amount",
              "type": "uint256"
            }
          ],
          "internalType": "struct WithdrawRecord",
          "name": "",
          "type": "tuple"
        }
      ],
      "stateMutability": "view",
      "type": "function"
    },
    {
      "inputs": [
        {
          "internalType": "bytes32",
          "name": "role",
          "type": "bytes32"
        },
        {
          "internalType": "address",
          "name": "account",
          "type": "address"
        }
      ],
      "name": "grantRole",
      "outputs": [],
      "stateMutability": "nonpayable",
      "type": "function"
    },
    {
      "inputs": [],
      "name": "harvestLedger",
      "outputs": [
        {
          "internalType": "uint256",
          "name": "localDepositValue",
          "type": "uint256"
        },
        {
          "internalType": "uint256",
          "name": "count",
          "type": "uint256"
        }
      ],
      "stateMutability": "view",
      "type": "function"
    },
    {
      "inputs": [],
      "name": "harvestVaults",
      "outputs": [],
      "stateMutability": "nonpayable",
      "type": "function"
    },
    {
      "inputs": [
        {
          "internalType": "bytes32",
          "name": "role",
          "type": "bytes32"
        },
        {
          "internalType": "address",
          "name": "account",
          "type": "address"
        }
      ],
      "name": "hasRole",
      "outputs": [
        {
          "internalType": "bool",
          "name": "",
          "type": "bool"
        }
      ],
      "stateMutability": "view",
      "type": "function"
    },
    {
      "inputs": [
        {
          "internalType": "address",
          "name": "spender",
          "type": "address"
        },
        {
          "internalType": "uint256",
          "name": "addedValue",
          "type": "uint256"
        }
      ],
      "name": "increaseAllowance",
      "outputs": [
        {
          "internalType": "bool",
          "name": "",
          "type": "bool"
        }
      ],
      "stateMutability": "nonpayable",
      "type": "function"
    },
    {
      "inputs": [
        {
          "components": [
            {
              "internalType": "uint256",
              "name": "value",
              "type": "uint256"
            },
            {
              "internalType": "address",
              "name": "sender",
              "type": "address"
            },
            {
              "internalType": "address",
              "name": "client",
              "type": "address"
            },
            {
              "internalType": "uint16",
              "name": "chainId",
              "type": "uint16"
            }
          ],
          "internalType": "struct Message",
          "name": "message",
          "type": "tuple"
        }
      ],
      "name": "isVaultAllowed",
      "outputs": [
        {
          "internalType": "bool",
          "name": "",
          "type": "bool"
        }
      ],
      "stateMutability": "view",
      "type": "function"
    },
    {
      "inputs": [
        {
          "internalType": "address",
          "name": "",
          "type": "address"
        }
      ],
      "name": "maxDeposit",
      "outputs": [
        {
          "internalType": "uint256",
          "name": "",
          "type": "uint256"
        }
      ],
      "stateMutability": "view",
      "type": "function"
    },
    {
      "inputs": [
        {
          "internalType": "address",
          "name": "",
          "type": "address"
        }
      ],
      "name": "maxMint",
      "outputs": [
        {
          "internalType": "uint256",
          "name": "",
          "type": "uint256"
        }
      ],
      "stateMutability": "view",
      "type": "function"
    },
    {
      "inputs": [
        {
          "internalType": "address",
          "name": "owner",
          "type": "address"
        }
      ],
      "name": "maxRedeem",
      "outputs": [
        {
          "internalType": "uint256",
          "name": "",
          "type": "uint256"
        }
      ],
      "stateMutability": "view",
      "type": "function"
    },
    {
      "inputs": [
        {
          "internalType": "address",
          "name": "owner",
          "type": "address"
        }
      ],
      "name": "maxWithdraw",
      "outputs": [
        {
          "internalType": "uint256",
          "name": "",
          "type": "uint256"
        }
      ],
      "stateMutability": "view",
      "type": "function"
    },
    {
      "inputs": [
        {
          "internalType": "uint256",
          "name": "shares",
          "type": "uint256"
        },
        {
          "internalType": "address",
          "name": "receiver",
          "type": "address"
        }
      ],
      "name": "mint",
      "outputs": [
        {
          "internalType": "uint256",
          "name": "assets",
          "type": "uint256"
        }
      ],
      "stateMutability": "nonpayable",
      "type": "function"
    },
    {
      "inputs": [],
      "name": "name",
      "outputs": [
        {
          "internalType": "string",
          "name": "",
          "type": "string"
        }
      ],
      "stateMutability": "view",
      "type": "function"
    },
    {
      "inputs": [],
      "name": "owner",
      "outputs": [
        {
          "internalType": "address",
          "name": "",
          "type": "address"
        }
      ],
      "stateMutability": "view",
      "type": "function"
    },
    {
      "inputs": [],
      "name": "pendingOwner",
      "outputs": [
        {
          "internalType": "address",
          "name": "",
          "type": "address"
        }
      ],
      "stateMutability": "view",
      "type": "function"
    },
    {
      "inputs": [],
      "name": "pendingWithdrawal",
      "outputs": [
        {
          "internalType": "uint256",
          "name": "",
          "type": "uint256"
        }
      ],
      "stateMutability": "view",
      "type": "function"
    },
    {
      "inputs": [],
      "name": "performanceFee",
      "outputs": [
        {
          "internalType": "uint256",
          "name": "",
          "type": "uint256"
        }
      ],
      "stateMutability": "view",
      "type": "function"
    },
    {
      "inputs": [],
      "name": "postOffice",
      "outputs": [
        {
          "internalType": "contract IPostOffice",
          "name": "",
          "type": "address"
        }
      ],
      "stateMutability": "view",
      "type": "function"
    },
    {
      "inputs": [
        {
          "internalType": "uint256",
          "name": "assets",
          "type": "uint256"
        }
      ],
      "name": "previewDeposit",
      "outputs": [
        {
          "internalType": "uint256",
          "name": "",
          "type": "uint256"
        }
      ],
      "stateMutability": "view",
      "type": "function"
    },
    {
      "inputs": [
        {
          "internalType": "uint256",
          "name": "shares",
          "type": "uint256"
        }
      ],
      "name": "previewMint",
      "outputs": [
        {
          "internalType": "uint256",
          "name": "",
          "type": "uint256"
        }
      ],
      "stateMutability": "view",
      "type": "function"
    },
    {
      "inputs": [
        {
          "internalType": "uint256",
          "name": "shares",
          "type": "uint256"
        }
      ],
      "name": "previewRedeem",
      "outputs": [
        {
          "internalType": "uint256",
          "name": "",
          "type": "uint256"
        }
      ],
      "stateMutability": "view",
      "type": "function"
    },
    {
      "inputs": [
        {
          "internalType": "uint256",
          "name": "assets",
          "type": "uint256"
        }
      ],
      "name": "previewWithdraw",
      "outputs": [
        {
          "internalType": "uint256",
          "name": "",
          "type": "uint256"
        }
      ],
      "stateMutability": "view",
      "type": "function"
    },
    {
      "inputs": [
        {
          "internalType": "address",
          "name": "receiver",
          "type": "address"
        }
      ],
      "name": "redeem",
      "outputs": [
        {
          "internalType": "uint256",
          "name": "amountOut",
          "type": "uint256"
        }
      ],
      "stateMutability": "nonpayable",
      "type": "function"
    },
    {
      "inputs": [
        {
          "internalType": "uint256",
          "name": "",
          "type": "uint256"
        },
        {
          "internalType": "address",
          "name": "receiver",
          "type": "address"
        },
        {
          "internalType": "address",
          "name": "",
          "type": "address"
        }
      ],
      "name": "redeem",
      "outputs": [
        {
          "internalType": "uint256",
          "name": "amountOut",
          "type": "uint256"
        }
      ],
      "stateMutability": "nonpayable",
      "type": "function"
    },
    {
      "inputs": [],
      "name": "redeem",
      "outputs": [
        {
          "internalType": "uint256",
          "name": "amountOut",
          "type": "uint256"
        }
      ],
      "stateMutability": "nonpayable",
      "type": "function"
    },
    {
      "inputs": [
        {
          "internalType": "address",
          "name": "user",
          "type": "address"
        }
      ],
      "name": "redeemIsReady",
      "outputs": [
        {
          "internalType": "bool",
          "name": "",
          "type": "bool"
        }
      ],
      "stateMutability": "view",
      "type": "function"
    },
    {
      "inputs": [
        {
          "internalType": "bytes32",
          "name": "role",
          "type": "bytes32"
        },
        {
          "internalType": "address",
          "name": "account",
          "type": "address"
        }
      ],
      "name": "renounceRole",
      "outputs": [],
      "stateMutability": "nonpayable",
      "type": "function"
    },
    {
      "inputs": [
        {
          "internalType": "uint256",
          "name": "shares",
          "type": "uint256"
        },
        {
          "internalType": "address",
          "name": "owner",
          "type": "address"
        }
      ],
      "name": "requestRedeem",
      "outputs": [],
      "stateMutability": "nonpayable",
      "type": "function"
    },
    {
      "inputs": [
        {
          "internalType": "uint256",
          "name": "shares",
          "type": "uint256"
        }
      ],
      "name": "requestRedeem",
      "outputs": [],
      "stateMutability": "nonpayable",
      "type": "function"
    },
    {
      "inputs": [
        {
          "internalType": "bytes32",
          "name": "role",
          "type": "bytes32"
        },
        {
          "internalType": "address",
          "name": "account",
          "type": "address"
        }
      ],
      "name": "revokeRole",
      "outputs": [],
      "stateMutability": "nonpayable",
      "type": "function"
    },
    {
      "inputs": [
        {
          "internalType": "address",
          "name": "asset",
          "type": "address"
        },
        {
          "internalType": "address",
          "name": "allowanceTarget",
          "type": "address"
        },
        {
          "internalType": "address",
          "name": "socketRegistry",
          "type": "address"
        },
        {
          "internalType": "address",
          "name": "destinationAddress",
          "type": "address"
        },
        {
          "internalType": "uint256",
          "name": "amount",
          "type": "uint256"
        },
        {
          "internalType": "uint256",
          "name": "destinationChainId",
          "type": "uint256"
        },
        {
          "internalType": "bytes",
          "name": "data",
          "type": "bytes"
        }
      ],
      "name": "sendTokens",
      "outputs": [],
      "stateMutability": "nonpayable",
      "type": "function"
    },
    {
      "inputs": [
        {
          "internalType": "uint256",
          "name": "_performanceFee",
          "type": "uint256"
        }
      ],
      "name": "setPerformanceFee",
      "outputs": [],
      "stateMutability": "nonpayable",
      "type": "function"
    },
    {
      "inputs": [
        {
          "internalType": "address",
          "name": "_treasury",
          "type": "address"
        }
      ],
      "name": "setTreasury",
      "outputs": [],
      "stateMutability": "nonpayable",
      "type": "function"
    },
    {
      "inputs": [
        {
          "internalType": "uint32",
          "name": "_fromChainId",
          "type": "uint32"
        },
        {
          "internalType": "uint32",
          "name": "_toChainId",
          "type": "uint32"
        },
        {
          "internalType": "uint256",
          "name": "amount",
          "type": "uint256"
        }
      ],
      "name": "startBridgeRoute",
      "outputs": [],
      "stateMutability": "nonpayable",
      "type": "function"
    },
    {
      "inputs": [
        {
          "internalType": "bytes4",
          "name": "interfaceId",
          "type": "bytes4"
        }
      ],
      "name": "supportsInterface",
      "outputs": [
        {
          "internalType": "bool",
          "name": "",
          "type": "bool"
        }
      ],
      "stateMutability": "view",
      "type": "function"
    },
    {
      "inputs": [],
      "name": "symbol",
      "outputs": [
        {
          "internalType": "string",
          "name": "",
          "type": "string"
        }
      ],
      "stateMutability": "view",
      "type": "function"
    },
    {
      "inputs": [
        {
          "internalType": "uint256",
          "name": "assets",
          "type": "uint256"
        }
      ],
      "name": "toSharesAfterDeposit",
      "outputs": [
        {
          "internalType": "uint256",
          "name": "",
          "type": "uint256"
        }
      ],
      "stateMutability": "view",
      "type": "function"
    },
    {
      "inputs": [],
      "name": "totalAssets",
      "outputs": [
        {
          "internalType": "uint256",
          "name": "",
          "type": "uint256"
        }
      ],
      "stateMutability": "view",
      "type": "function"
    },
    {
      "inputs": [],
      "name": "totalSupply",
      "outputs": [
        {
          "internalType": "uint256",
          "name": "",
          "type": "uint256"
        }
      ],
      "stateMutability": "view",
      "type": "function"
    },
    {
      "inputs": [
        {
          "internalType": "address",
          "name": "to",
          "type": "address"
        },
        {
          "internalType": "uint256",
          "name": "amount",
          "type": "uint256"
        }
      ],
      "name": "transfer",
      "outputs": [
        {
          "internalType": "bool",
          "name": "",
          "type": "bool"
        }
      ],
      "stateMutability": "nonpayable",
      "type": "function"
    },
    {
      "inputs": [
        {
          "internalType": "address",
          "name": "from",
          "type": "address"
        },
        {
          "internalType": "address",
          "name": "to",
          "type": "address"
        },
        {
          "internalType": "uint256",
          "name": "amount",
          "type": "uint256"
        }
      ],
      "name": "transferFrom",
      "outputs": [
        {
          "internalType": "bool",
          "name": "",
          "type": "bool"
        }
      ],
      "stateMutability": "nonpayable",
      "type": "function"
    },
    {
      "inputs": [
        {
          "internalType": "address",
          "name": "_pendingOwner",
          "type": "address"
        }
      ],
      "name": "transferOwnership",
      "outputs": [],
      "stateMutability": "nonpayable",
      "type": "function"
    },
    {
      "inputs": [],
      "name": "treasury",
      "outputs": [
        {
          "internalType": "address",
          "name": "",
          "type": "address"
        }
      ],
      "stateMutability": "view",
      "type": "function"
    },
    {
      "inputs": [
        {
          "internalType": "uint256",
          "name": "",
          "type": "uint256"
        },
        {
          "internalType": "address",
          "name": "",
          "type": "address"
        },
        {
          "internalType": "address",
          "name": "",
          "type": "address"
        }
      ],
      "name": "withdraw",
      "outputs": [
        {
          "internalType": "uint256",
          "name": "",
          "type": "uint256"
        }
      ],
      "stateMutability": "pure",
      "type": "function"
    },
    {
      "inputs": [
        {
          "components": [
            {
              "internalType": "address",
              "name": "vaultAddr",
              "type": "address"
            },
            {
              "internalType": "uint256",
              "name": "amount",
              "type": "uint256"
            }
          ],
          "internalType": "struct SectorCrossVault.Request[]",
          "name": "vaults",
          "type": "tuple[]"
        }
      ],
      "name": "withdrawFromVaults",
      "outputs": [],
      "stateMutability": "nonpayable",
      "type": "function"
    },
    {
      "inputs": [
        {
          "internalType": "address",
          "name": "",
          "type": "address"
        }
      ],
      "name": "withdrawLedger",
      "outputs": [
        {
          "internalType": "uint256",
          "name": "timestamp",
          "type": "uint256"
        },
        {
          "internalType": "uint256",
          "name": "amount",
          "type": "uint256"
        }
      ],
      "stateMutability": "view",
      "type": "function"
    },
    {
      "inputs": [],
      "name": "withdrawSharePrice",
      "outputs": [
        {
          "internalType": "uint256",
          "name": "",
          "type": "uint256"
        }
      ],
      "stateMutability": "view",
      "type": "function"
    },
    {
      "inputs": [],
      "name": "withdrawTimestamp",
      "outputs": [
        {
          "internalType": "uint256",
          "name": "",
          "type": "uint256"
        }
      ],
      "stateMutability": "view",
      "type": "function"
    }
  ],
  "transactionHash": "0x926f4dce91f4517b2f2845ab33176ca95f50c2313a1d78048611a8f1b7e24e0c",
  "args": [
    "0x77EE56B9a4D28FB6d5ae98761cd438f648D5961d",
    "CrossVault",
    "XVLT",
    "0xACDB303129dD772DCd717bf75b8667A06C00089A",
    "0xACDB303129dD772DCd717bf75b8667A06C00089A",
    "0xACDB303129dD772DCd717bf75b8667A06C00089A",
    "0xACDB303129dD772DCd717bf75b8667A06C00089A",
    0,
    "0x6327bBdBCE91dC5eF92bef5C8f40cA843C636f1B"
  ],
  "numDeployments": 1,
  "solcInputHash": "c31142ae8b3e5cc7e2ecb3cea9bceee7",
  "bytecode": "0x60e060405261ffff461660c0526012805460ff191690553480156200002357600080fd5b50604051620043b4380380620043b4833981016040819052620000469162000453565b600180546001600160a01b0319166001600160a01b0388169081179091556040805160008152602081019290925282918b918b918b918b918b918b918b918b9188918891859185918a918a918a917f8be0079c531659141344cd1fd0a4f28419497f9722a3daafe3b4186f6b6457e0910160405180910390a1600154620000d9906000906001600160a01b031662000277565b600154620001019060008051602062004394833981519152906001600160a01b031662000277565b6200011c600080516020620043948339815191528362000277565b600154620001449060008051602062004374833981519152906001600160a01b031662000277565b6200015f600080516020620043748339815191528362000277565b6200017a600080516020620043748339815191528262000277565b620001a4600080516020620043748339815191526000805160206200439483398151915262000318565b5050600480546001600160a01b0319166001600160a01b03851690811790915560038390556040519091507fcb7ef3e545f5cdb893f5c568ba710fe08f336375a2d9fd66e161033f8fc09ef390600090a26040518181527f8b940a95968ad5b511f89b01075446a4fe9f614f2dc5fbb9e9a6b227d6d4fd709060200160405180910390a15060089050620002398382620005cb565b506009620002488282620005cb565b5050506001600160a01b03978816608052505050509390921660a05250620006979a5050505050505050505050565b6000828152602081815260408083206001600160a01b038516845290915290205460ff1662000314576000828152602081815260408083206001600160a01b03851684529091529020805460ff19166001179055620002d33390565b6001600160a01b0316816001600160a01b0316837f2f8788117e7eff1d82e926ec794901d17c78024a50270940304540a733656f0d60405160405180910390a45b5050565b600082815260208190526040808220600101805490849055905190918391839186917fbd79b86ffe0ab8e8776151514217cd7cacd52c909f66475c3af44e129f0b00ff9190a4505050565b6001600160a01b03811681146200037957600080fd5b50565b634e487b7160e01b600052604160045260246000fd5b600082601f830112620003a457600080fd5b81516001600160401b0380821115620003c157620003c16200037c565b604051601f8301601f19908116603f01168101908282118183101715620003ec57620003ec6200037c565b816040528381526020925086838588010111156200040957600080fd5b600091505b838210156200042d57858201830151818301840152908201906200040e565b600093810190920192909252949350505050565b80516200044e8162000363565b919050565b60008060008060008060008060006101208a8c0312156200047357600080fd5b8951620004808162000363565b60208b01519099506001600160401b03808211156200049e57600080fd5b620004ac8d838e0162000392565b995060408c0151915080821115620004c357600080fd5b50620004d28c828d0162000392565b97505060608a0151620004e58162000363565b9550620004f560808b0162000441565b94506200050560a08b0162000441565b93506200051560c08b0162000441565b925060e08a015191506200052d6101008b0162000441565b90509295985092959850929598565b600181811c908216806200055157607f821691505b6020821081036200057257634e487b7160e01b600052602260045260246000fd5b50919050565b601f821115620005c657600081815260208120601f850160051c81016020861015620005a15750805b601f850160051c820191505b81811015620005c257828155600101620005ad565b5050505b505050565b81516001600160401b03811115620005e757620005e76200037c565b620005ff81620005f884546200053c565b8462000578565b602080601f8311600181146200063757600084156200061e5750858301515b600019600386901b1c1916600185901b178555620005c2565b600085815260208120601f198616915b82811015620006685788860151825594840194600190910190840162000647565b5085821015620006875787850151600019600388901b60f8161c191681555b5050505050600190811b01905550565b60805160a05160c051613c596200071b600039600081816115d90152818161189601528181611e4d015261222c01526000818161076e01528181611119015281816116c00152818161196501528181611faa015261237e0152600081816108c701528181610b9801528181610f0201528181611a1e0152611b4d0152613c596000f3fe608060405234801561001057600080fd5b506004361061030c5760003560e01c806301e1d1141461031157806301ffc9a71461032c57806306fdde031461034f57806307a2d13a14610364578063095ea7b3146103775780630a28a4771461038a578063107703ab1461039d57806318160ddd146103b25780631b2df850146103ba57806321b77d63146103cf57806323b872dd146103d8578063248a9ca3146103eb5780632f2ff15d146103fe578063313ce5671461041157806331b38d571461042b5780633230b79b14610434578063341a7b421461046257806336568abe146104755780633950935114610488578063402d267d1461049b5780634cdad506146104b057806350ea6b19146104c357806351a72964146104d6578063526e8153146105465780635b9d26581461054f57806361d027b3146105845780636e553f65146105a457806370897b23146105b757806370a08231146105ca578063724c184c146105dd57806375bdd9f4146105f257806375dd7d381461060557806379ba5097146106185780637a70b7bc146106205780637e28882214610633578063826278531461063c578063826451bd1461064f57806387788782146106625780638a6d13091461066b5780638da5cb5b1461067e57806391d148541461069157806393c77f1f146106a457806394bf804d146106fa57806395a2251f1461070d57806395d89b4114610720578063a217fddf14610728578063a457c2d714610730578063a9059cbb14610743578063aa2f892d14610756578063abc4937c14610769578063b3d7f6b914610790578063b460af94146107a3578063ba087652146107b6578063be040fb0146107c9578063c61b603f146107d1578063c63d75b61461049b578063c6e6f592146107df578063ce96cb77146107f2578063d547741f14610805578063d905777e14610818578063db2e21bc1461082b578063dd62ed3e14610833578063e30c397814610846578063eacff5ba14610859578063ef8b30f71461086c578063f0f442601461087f578063f2fde38b14610892578063f6316e7e146108a5575b600080fd5b6103196108ad565b6040519081526020015b60405180910390f35b61033f61033a36600461325b565b610942565b6040519015158152602001610323565b610357610979565b60405161032391906132a9565b6103196103723660046132dc565b610a0b565b61033f61038536600461330a565b610a3f565b6103196103983660046132dc565b610a57565b6103b06103ab366004613336565b610a7e565b005b610319610b2f565b610319600080516020613b8483398151915281565b6103196103e881565b61033f6103e6366004613366565b610b3a565b6103196103f93660046132dc565b610b5e565b6103b061040c366004613336565b610b73565b610419610b94565b60405160ff9091168152602001610323565b610319600b5481565b61033f6104423660046133a7565b6001600160a01b03166000908152600d6020526040902054600a54101590565b6103b06104703660046133d2565b610c18565b6103b0610483366004613336565b610cbb565b61033f61049636600461330a565b610d39565b6103196104a93660046133a7565b5060001990565b6103196104be3660046132dc565b610d5b565b6103b06104d1366004613400565b610d66565b61052b6104e43660046133a7565b6040805180820190915260008082526020820152506001600160a01b03166000908152600d6020908152604091829020825180840190935280548352600101549082015290565b60408051825181526020928301519281019290925201610323565b610319600a5481565b61057661055d3660046133a7565b600d602052600090815260409020805460019091015482565b604051610323929190613452565b600454610597906001600160a01b031681565b6040516103239190613460565b6103196105b2366004613336565b610ee8565b6103b06105c53660046132dc565b610fc1565b6103196105d83660046133a7565b61106e565b610319600080516020613ba483398151915281565b6103b061060036600461348d565b611089565b6103b06106133660046134c9565b6110d4565b6103b0611258565b6103b061062e3660046134eb565b6113a3565b610319600c5481565b6103b061064a3660046135ba565b6114fd565b61033f61065d36600461362e565b611779565b61031960035481565b6103b06106793660046135ba565b6117ba565b600154610597906001600160a01b031681565b61033f61069f366004613336565b6119db565b6106da6106b23660046133a7565b600e602052600090815260409020805460019091015461ffff81169062010000900460ff1683565b6040805193845261ffff9092166020840152151590820152606001610323565b610319610708366004613336565b611a04565b61031961071b3660046133a7565b611a83565b610357611c1d565b610319600081565b61033f61073e36600461330a565b611c2c565b61033f61075136600461330a565b611ca7565b6103b06107643660046132dc565b611cb5565b6105977f000000000000000000000000000000000000000000000000000000000000000081565b61031961079e3660046132dc565b611cc2565b6103196107b1366004613646565b611ce8565b6103196107c4366004613646565b611d03565b610319611d16565b601054601154610576919082565b6103196107ed3660046132dc565b611d21565b6103196108003660046133a7565b611d48565b6103b0610813366004613336565b611d56565b6103196108263660046133a7565b611d72565b6103b0611d7d565b61031961084136600461367d565b61201f565b600254610597906001600160a01b031681565b6103196108673660046132dc565b61204a565b61031961087a3660046132dc565b612073565b6103b061088d3660046133a7565b61207e565b6103b06108a03660046133a7565b6120f2565b6103b0612170565b6040516370a0823160e01b81526000906001600160a01b037f000000000000000000000000000000000000000000000000000000000000000016906370a08231906108fc903090600401613460565b602060405180830381865afa158015610919573d6000803e3d6000fd5b505050506040513d601f19601f8201168201806040525081019061093d91906136ab565b905090565b60006001600160e01b03198216637965db0b60e01b148061097357506301ffc9a760e01b6001600160e01b03198316145b92915050565b606060088054610988906136c4565b80601f01602080910402602001604051908101604052809291908181526020018280546109b4906136c4565b8015610a015780601f106109d657610100808354040283529160200191610a01565b820191906000526020600020905b8154815290600101906020018083116109e457829003601f168201915b5050505050905090565b600080610a16610b2f565b90508015610a3657610a31610a296108ad565b84908361240f565b610a38565b825b9392505050565b600033610a4d81858561242e565b5060019392505050565b600080610a62610b2f565b90508015610a3657610a3181610a766108ad565b85919061254a565b336001600160a01b03821614610a9957610a99813384612578565b610aa48130846125ec565b336000908152600d6020526040812042815560018101805491928592610acb90849061370e565b9250508190555082600c6000828254610ae4919061370e565b90915550506040518381526001600160a01b0383169033907ff601bbafcf0d793cce0a8802057c8783aa5946889f76bd9dd47492217f59af1e906020015b60405180910390a3505050565b600061093d60075490565b600033610b48858285612578565b610b538585856125ec565b506001949350505050565b60009081526020819052604090206001015490565b610b7c82610b5e565b610b85816127a8565b610b8f83836127b2565b505050565b60007f00000000000000000000000000000000000000000000000000000000000000006001600160a01b031663313ce5676040518163ffffffff1660e01b8152600401602060405180830381865afa158015610bf4573d6000803e3d6000fd5b505050506040513d601f19601f8201168201806040525081019061093d9190613721565b6001546001600160a01b03163314610c4b5760405162461bcd60e51b8152600401610c4290613744565b60405180910390fd5b6001600160a01b0382166000818152600e6020908152604091829020600101805462ff0000191662010000861515908102919091179091558251938452908301527f7adba08974ddcc1aeb4b4ebe0f6938b06d7bb23a2df7a841612d03d8ae31ccc2910160405180910390a15050565b6001600160a01b0381163314610d2b5760405162461bcd60e51b815260206004820152602f60248201527f416363657373436f6e74726f6c3a2063616e206f6e6c792072656e6f756e636560448201526e103937b632b9903337b91039b2b63360891b6064820152608401610c42565b610d358282612836565b5050565b600033610a4d818585610d4c838361201f565b610d56919061370e565b61242e565b600061097382610a0b565b6001546001600160a01b03163314610d905760405162461bcd60e51b8152600401610c4290613744565b6001600160a01b0383166000908152600e602090815260409182902082516060810184528154815260019091015461ffff811692820183905262010000900460ff16151592810192909252151580610deb5750604081015115155b15610e0957604051630cb3e97f60e31b815260040160405180910390fd5b60408051606081018252600080825261ffff86811660208085018281528815158688019081526001600160a01b038c16808752600e84528887209751885591516001978801805492511515620100000262ffffff19909316919096161717909355600f805495860181559093527f8d1108e10bcb7c27dddfc02ed9d693a074039d026cf4ea4240b40f7d581ac80290930180546001600160a01b031916821790558351908152908101919091527ff417501280661e46a6b31845304523f6a5a88e7f9731bf55e3ce0ebe5107bc6891015b60405180910390a150505050565b6000610ef383612073565b9050610f2a6001600160a01b037f00000000000000000000000000000000000000000000000000000000000000001633308661289b565b610f32610b2f565b600003610f7757806103e81115610f5c57604051630131cd7b60e51b815260040160405180910390fd5b610f686103e882613768565b9050610f7760016103e86128f5565b610f8182826128f5565b816001600160a01b0316336001600160a01b0316600080516020613c048339815191528584604051610fb4929190613452565b60405180910390a3610973565b6001546001600160a01b03163314610feb5760405162461bcd60e51b8152600401610c4290613744565b670de0b6b3a76400008111156110325760405162461bcd60e51b815260206004820152600c60248201526b08c8a8abea89e9ebe90928e960a31b6044820152606401610c42565b60038190556040518181527f8b940a95968ad5b511f89b01075446a4fe9f614f2dc5fbb9e9a6b227d6d4fd70906020015b60405180910390a150565b6001600160a01b031660009081526005602052604090205490565b600080516020613b848339815191526110a1816127a8565b6040805163ffffffff808716825285166020820152908101839052600080516020613bc483398151915290606001610eda565b600080516020613b848339815191526110ec816127a8565b601154601090600081900361111457604051630951089360e21b815260040160405180910390fd5b6000807f00000000000000000000000000000000000000000000000000000000000000006001600160a01b0316634926e57260056040518263ffffffff1660e01b8152600401611164919061379d565b60408051808303816000875af1158015611182573d6000803e3d6000fd5b505050506040513d601f19601f820116820180604052508101906111a691906137ab565b91509150808311156111cb576040516360a7f98960e01b815260040160405180910390fd5b83546000906111db90849061370e565b905060008189116111f5576111f08983613768565b6111ff565b6111ff828a613768565b90508781111561122257604051638199f5f360e01b815260040160405180910390fd5b61124061122d610b2f565b61123790846137cf565b600b5542600a55565b50506000808555600190940193909355505050505050565b6002546001600160a01b031633146112a75760405162461bcd60e51b815260206004820152601260248201527127a7262cafa822a72224a723afa7aba722a960711b6044820152606401610c42565b600180546002546001600160a01b031982166001600160a01b0391821617909255166112d4600082612836565b6112ec600080516020613ba483398151915282612836565b611304600080516020613b8483398151915282612836565b60015461131c906000906001600160a01b03166127b2565b60015461134190600080516020613ba4833981519152906001600160a01b03166127b2565b60015461136690600080516020613b84833981519152906001600160a01b03166127b2565b6001546040517f8be0079c531659141344cd1fd0a4f28419497f9722a3daafe3b4186f6b6457e0916110639184916001600160a01b0316906137f1565b600080516020613b848339815191526113bb816127a8565b6113ff83838080601f0160208091040260200160405190810160405280939291908181526020018383808284376000920191909152508892508d91508a90506129c2565b60405163095ea7b360e01b81526001600160a01b038a169063095ea7b39061142d908b90899060040161380b565b6020604051808303816000875af115801561144c573d6000803e3d6000fd5b505050506040513d601f19601f820116820180604052508101906114709190613824565b506000876001600160a01b0316848460405161148d929190613841565b6000604051808303816000865af19150503d80600081146114ca576040519150601f19603f3d011682016040523d82523d6000602084013e6114cf565b606091505b50509050806114f15760405163e0fec00360e01b815260040160405180910390fd5b50505050505050505050565b600080516020613b84833981519152611515816127a8565b60005b8281101561177357600084848381811061153457611534613851565b61154a92602060409092020190810191506133a7565b9050600085858481811061156057611560613851565b6001600160a01b0385166000908152600e602090815260409182902082516060810184528154815260019091015461ffff81168284015262010000900460ff161515818401819052939092029490940190930135935090506115d757826040516318ef3f8360e01b8152600401610c429190613460565b7f000000000000000000000000000000000000000000000000000000000000000061ffff16816020015161ffff160361168157604051636e553f6560e01b8152600481018390523060248201526001600160a01b03841690636e553f65906044016020604051808303816000875af1158015611657573d6000803e3d6000fd5b505050506040513d601f19601f8201168201806040525081019061167b91906136ab565b50611768565b604080516080810182528381523060208083019190915260008284015283015161ffff1660608201529051630696d45160e31b81526001600160a01b037f000000000000000000000000000000000000000000000000000000000000000016916334b6a288916116f8918791600190600401613867565b600060405180830381600087803b15801561171257600080fd5b505af1158015611726573d6000803e3d6000fd5b5050506020808301516040805161ffff468116825290921692820192909252908101849052600080516020613bc4833981519152915060600160405180910390a15b505050600101611518565b50505050565b6000600e8161178e60408501602086016133a7565b6001600160a01b0316815260208101919091526040016000206001015462010000900460ff1692915050565b600080516020613b848339815191526117d2816127a8565b60005b828110156117735760008484838181106117f1576117f1613851565b61180792602060409092020190810191506133a7565b9050600085858481811061181d5761181d613851565b6001600160a01b0385166000908152600e602090815260409182902082516060810184528154815260019091015461ffff81168284015262010000900460ff1615158184018190529390920294909401909301359350905061189457826040516318ef3f8360e01b8152600401610c429190613460565b7f000000000000000000000000000000000000000000000000000000000000000061ffff16816020015161ffff16036119265760405163aa2f892d60e01b8152600481018390526001600160a01b0384169063aa2f892d90602401600060405180830381600087803b15801561190957600080fd5b505af115801561191d573d6000803e3d6000fd5b505050506119d0565b604080516080810182528381523060208083019190915260008284015283015161ffff1660608201529051630696d45160e31b81526001600160a01b037f000000000000000000000000000000000000000000000000000000000000000016916334b6a2889161199d918791600290600401613867565b600060405180830381600087803b1580156119b757600080fd5b505af11580156119cb573d6000803e3d6000fd5b505050505b5050506001016117d5565b6000918252602082815260408084206001600160a01b0393909316845291905290205460ff1690565b6000611a0f83611cc2565b9050611a466001600160a01b037f00000000000000000000000000000000000000000000000000000000000000001633308461289b565b611a5082846128f5565b816001600160a01b0316336001600160a01b0316600080516020613c048339815191528386604051610fb4929190613452565b336000908152600d6020526040812060018101548203611ab657604051631f2a200560e01b815260040160405180910390fd5b600a5481541115611ada57604051634a44555360e11b815260040160405180910390fd5b670de0b6b3a7640000600b548260010154611af591906138b6565b611aff91906137cf565b91506000816001015490508160010154600c6000828254611b209190613768565b909155505060006001830155611b363082612ae0565b60405163a9059cbb60e01b81526001600160a01b037f0000000000000000000000000000000000000000000000000000000000000000169063a9059cbb90611b84908790879060040161380b565b6020604051808303816000875af1158015611ba3573d6000803e3d6000fd5b505050506040513d601f19601f82011682018060405250810190611bc79190613824565b506001546040516001600160a01b039182169186169033907ffbde797d201c681b91056529119e0b02407c7bb96a4a2c75c01fc9667232c8db90611c0e9088908790613452565b60405180910390a45050919050565b606060098054610988906136c4565b60003381611c3a828661201f565b905083811015611c9a5760405162461bcd60e51b815260206004820152602560248201527f45524332303a2064656372656173656420616c6c6f77616e63652062656c6f77604482015264207a65726f60d81b6064820152608401610c42565b610b53828686840361242e565b600033610a4d8185856125ec565b611cbf8133610a7e565b50565b600080611ccd610b2f565b90508015610a3657610a31611ce06108ad565b84908361254a565b600060405163d623472560e01b815260040160405180910390fd5b6000611d0e83611a83565b949350505050565b600061093d33611a83565b600080611d2c610b2f565b90508015610a3657610a3181611d406108ad565b85919061240f565b60006109736103728361106e565b611d5f82610b5e565b611d68816127a8565b610b8f8383612836565b60006109738261106e565b60125460ff16611da057604051630a46455b60e31b815260040160405180910390fd5b6000611dab3361106e565b9050611db73382612ae0565b6000611dcb611dc4610b2f565b8390612c1c565b600f5490915060005b81811015611773576000600f8281548110611df157611df1613851565b6000918252602080832091909101546001600160a01b0316808352600e825260409283902083516060810185528154815260019091015461ffff8082169483018590526201000090910460ff16151594820194909452909350917f0000000000000000000000000000000000000000000000000000000000000000169003611f6c576040516370a0823160e01b81528290600090611ef0906001600160a01b038416906370a0823190611ea8903090600401613460565b602060405180830381865afa158015611ec5573d6000803e3d6000fd5b505050506040513d601f19601f82011682018060405250810190611ee991906136ab565b8890612c31565b60405163a9059cbb60e01b81529091506001600160a01b0383169063a9059cbb90611f21903390859060040161380b565b6020604051808303816000875af1158015611f40573d6000803e3d6000fd5b505050506040513d601f19601f82011682018060405250810190611f649190613824565b505050612015565b6040805160808101825286815230602080830191909152338284015283015161ffff1660608201529051630696d45160e31b81526001600160a01b037f000000000000000000000000000000000000000000000000000000000000000016916334b6a28891611fe2918691600390600401613867565b600060405180830381600087803b158015611ffc57600080fd5b505af1158015612010573d6000803e3d6000fd5b505050505b5050600101611dd4565b6001600160a01b03918216600090815260066020908152604080832093909416825291909152205490565b600080826120566108ad565b6120609190613768565b90508015610a3657610a3183828061240f565b600061097382611d21565b6001546001600160a01b031633146120a85760405162461bcd60e51b8152600401610c4290613744565b600480546001600160a01b0319166001600160a01b0383169081179091556040517fcb7ef3e545f5cdb893f5c568ba710fe08f336375a2d9fd66e161033f8fc09ef390600090a250565b6001546001600160a01b0316331461211c5760405162461bcd60e51b8152600401610c4290613744565b600280546001600160a01b0319166001600160a01b038381169182179092556001546040517fb150023a879fd806e3599b6ca8ee3b60f0e360ab3846d128d67ebce1a391639a9361106393921691906137f1565b600080516020613b84833981519152612188816127a8565b601154600090156121ac5760405163835eaa8f60e01b815260040160405180910390fd5b600f546000805b82811015612401576000600f82815481106121d0576121d0613851565b6000918252602080832091909101546001600160a01b0316808352600e825260409283902083516060810185528154815260019091015461ffff8082169483018590526201000090910460ff16151594820194909452909350917f000000000000000000000000000000000000000000000000000000000000000016900361233c57816001600160a01b03166331b38d576040518163ffffffff1660e01b8152600401602060405180830381865afa158015612290573d6000803e3d6000fd5b505050506040513d601f19601f820116820180604052508101906122b491906136ab565b6040516370a0823160e01b81526001600160a01b038416906370a08231906122e0903090600401613460565b602060405180830381865afa1580156122fd573d6000803e3d6000fd5b505050506040513d601f19601f8201168201806040525081019061232191906136ab565b61232b91906138b6565b612335908761370e565b95506123f7565b604080516080810182526000808252306020808401919091528284019190915283015161ffff1660608201529051630696d45160e31b81526001600160a01b037f000000000000000000000000000000000000000000000000000000000000000016916334b6a288916123b59186916004908101613867565b600060405180830381600087803b1580156123cf57600080fd5b505af11580156123e3573d6000803e3d6000fd5b505050506001846123f4919061370e565b93505b50506001016121b3565b506010929092555060115550565b82820281151584158583048514171661242757600080fd5b0492915050565b6001600160a01b0383166124905760405162461bcd60e51b8152602060048201526024808201527f45524332303a20617070726f76652066726f6d20746865207a65726f206164646044820152637265737360e01b6064820152608401610c42565b6001600160a01b0382166124f15760405162461bcd60e51b815260206004820152602260248201527f45524332303a20617070726f766520746f20746865207a65726f206164647265604482015261737360f01b6064820152608401610c42565b6001600160a01b0383811660008181526006602090815260408083209487168084529482529182902085905590518481527f8c5be1e5ebec7d5bd14f71427d1e84f3dd0314c0f7b2291e5b200ac8c7c3b9259101610b22565b82820281151584158583048514171661256257600080fd5b6001826001830304018115150290509392505050565b6000612584848461201f565b9050600019811461177357818110156125df5760405162461bcd60e51b815260206004820152601d60248201527f45524332303a20696e73756666696369656e7420616c6c6f77616e63650000006044820152606401610c42565b611773848484840361242e565b6001600160a01b0383166126505760405162461bcd60e51b815260206004820152602560248201527f45524332303a207472616e736665722066726f6d20746865207a65726f206164604482015264647265737360d81b6064820152608401610c42565b6001600160a01b0382166126b25760405162461bcd60e51b815260206004820152602360248201527f45524332303a207472616e7366657220746f20746865207a65726f206164647260448201526265737360e81b6064820152608401610c42565b6001600160a01b0383166000908152600560205260409020548181101561272a5760405162461bcd60e51b815260206004820152602660248201527f45524332303a207472616e7366657220616d6f756e7420657863656564732062604482015265616c616e636560d01b6064820152608401610c42565b6001600160a01b0380851660009081526005602052604080822085850390559185168152908120805484929061276190849061370e565b92505081905550826001600160a01b0316846001600160a01b0316600080516020613be48339815191528460405161279b91815260200190565b60405180910390a3611773565b611cbf8133612c46565b6127bc82826119db565b610d35576000828152602081815260408083206001600160a01b03851684529091529020805460ff191660011790556127f23390565b6001600160a01b0316816001600160a01b0316837f2f8788117e7eff1d82e926ec794901d17c78024a50270940304540a733656f0d60405160405180910390a45050565b61284082826119db565b15610d35576000828152602081815260408083206001600160a01b0385168085529252808320805460ff1916905551339285917ff6391f5c32d9c69d2a47ea670b442974b53935d1edc7fd64eb21e047a839171b9190a45050565b604080516001600160a01b0385811660248301528416604482015260648082018490528251808303909101815260849091019091526020810180516001600160e01b03166323b872dd60e01b179052611773908590612caa565b6001600160a01b03821661294b5760405162461bcd60e51b815260206004820152601f60248201527f45524332303a206d696e7420746f20746865207a65726f2061646472657373006044820152606401610c42565b806007600082825461295d919061370e565b90915550506001600160a01b0382166000908152600560205260408120805483929061298a90849061370e565b90915550506040518181526001600160a01b03831690600090600080516020613be48339815191529060200160405180910390a35050565b6129ca6131d5565b6129d385612d7c565b905083816020015114612a1a5760405162461bcd60e51b815260206004820152600f60248201526e125b9d985b1a590818da185a5b9259608a1b6044820152606401610c42565b816001600160a01b031681600001516001600160a01b031614612a7a5760405162461bcd60e51b8152602060048201526018602482015277496e76616c6964207265636569766572206164647265737360401b6044820152606401610c42565b826001600160a01b03168160800151604001516001600160a01b031614612ad95760405162461bcd60e51b815260206004820152601360248201527224b73b30b634b21034b7383aba103a37b5b2b760691b6044820152606401610c42565b5050505050565b6001600160a01b038216612b405760405162461bcd60e51b815260206004820152602160248201527f45524332303a206275726e2066726f6d20746865207a65726f206164647265736044820152607360f81b6064820152608401610c42565b6001600160a01b03821660009081526005602052604090205481811015612bb45760405162461bcd60e51b815260206004820152602260248201527f45524332303a206275726e20616d6f756e7420657863656564732062616c616e604482015261636560f01b6064820152608401610c42565b6001600160a01b0383166000908152600560205260408120838303905560078054849290612be3908490613768565b90915550506040518281526000906001600160a01b03851690600080516020613be48339815191529060200160405180910390a3505050565b6000610a3883670de0b6b3a76400008461240f565b6000610a388383670de0b6b3a764000061240f565b612c5082826119db565b610d3557612c68816001600160a01b03166014612db4565b612c73836020612db4565b604051602001612c849291906138d5565b60408051601f198184030181529082905262461bcd60e51b8252610c42916004016132a9565b6000612cff826040518060400160405280602081526020017f5361666545524332303a206c6f772d6c6576656c2063616c6c206661696c6564815250856001600160a01b0316612f4f9092919063ffffffff16565b805190915015610b8f5780806020019051810190612d1d9190613824565b610b8f5760405162461bcd60e51b815260206004820152602a60248201527f5361666545524332303a204552433230206f7065726174696f6e20646964206e6044820152691bdd081cdd58d8d9595960b21b6064820152608401610c42565b612d846131d5565b6000612d9e836004808651612d999190613768565b612f5e565b905080806020019051810190610a389190613a97565b60606000612dc38360026138b6565b612dce90600261370e565b6001600160401b03811115612de557612de5613944565b6040519080825280601f01601f191660200182016040528015612e0f576020820181803683370190505b509050600360fc1b81600081518110612e2a57612e2a613851565b60200101906001600160f81b031916908160001a905350600f60fb1b81600181518110612e5957612e59613851565b60200101906001600160f81b031916908160001a9053506000612e7d8460026138b6565b612e8890600161370e565b90505b6001811115612f00576f181899199a1a9b1b9c1cb0b131b232b360811b85600f1660108110612ebc57612ebc613851565b1a60f81b828281518110612ed257612ed2613851565b60200101906001600160f81b031916908160001a90535060049490941c93612ef981613b50565b9050612e8b565b508315610a385760405162461bcd60e51b815260206004820181905260248201527f537472696e67733a20686578206c656e67746820696e73756666696369656e746044820152606401610c42565b6060611d0e848460008561306b565b606081612f6c81601f61370e565b1015612fab5760405162461bcd60e51b815260206004820152600e60248201526d736c6963655f6f766572666c6f7760901b6044820152606401610c42565b612fb5828461370e565b84511015612ff95760405162461bcd60e51b8152602060048201526011602482015270736c6963655f6f75744f66426f756e647360781b6044820152606401610c42565b6060821580156130185760405191506000825260208201604052613062565b6040519150601f8416801560200281840101858101878315602002848b0101015b81831015613051578051835260209283019201613039565b5050858452601f01601f1916604052505b50949350505050565b6060824710156130cc5760405162461bcd60e51b815260206004820152602660248201527f416464726573733a20696e73756666696369656e742062616c616e636520666f6044820152651c8818d85b1b60d21b6064820152608401610c42565b6001600160a01b0385163b6131235760405162461bcd60e51b815260206004820152601d60248201527f416464726573733a2063616c6c20746f206e6f6e2d636f6e74726163740000006044820152606401610c42565b600080866001600160a01b0316858760405161313f9190613b67565b60006040518083038185875af1925050503d806000811461317c576040519150601f19603f3d011682016040523d82523d6000602084013e613181565b606091505b509150915061319182828661319c565b979650505050505050565b606083156131ab575081610a38565b8251156131bb5782518084602001fd5b8160405162461bcd60e51b8152600401610c4291906132a9565b6040518060a0016040528060006001600160a01b0316815260200160008152602001600081526020016132326040518060800160405280600081526020016000815260200160006001600160a01b03168152602001606081525090565b815260408051608081018252600080825260208281018290529282015260608082015291015290565b60006020828403121561326d57600080fd5b81356001600160e01b031981168114610a3857600080fd5b60005b838110156132a0578181015183820152602001613288565b50506000910152565b60208152600082518060208401526132c8816040850160208701613285565b601f01601f19169190910160400192915050565b6000602082840312156132ee57600080fd5b5035919050565b6001600160a01b0381168114611cbf57600080fd5b6000806040838503121561331d57600080fd5b8235613328816132f5565b946020939093013593505050565b6000806040838503121561334957600080fd5b82359150602083013561335b816132f5565b809150509250929050565b60008060006060848603121561337b57600080fd5b8335613386816132f5565b92506020840135613396816132f5565b929592945050506040919091013590565b6000602082840312156133b957600080fd5b8135610a38816132f5565b8015158114611cbf57600080fd5b600080604083850312156133e557600080fd5b82356133f0816132f5565b9150602083013561335b816133c4565b60008060006060848603121561341557600080fd5b8335613420816132f5565b9250602084013561ffff8116811461343757600080fd5b91506040840135613447816133c4565b809150509250925092565b918252602082015260400190565b6001600160a01b0391909116815260200190565b803563ffffffff8116811461348857600080fd5b919050565b6000806000606084860312156134a257600080fd5b6134ab84613474565b92506134b960208501613474565b9150604084013590509250925092565b600080604083850312156134dc57600080fd5b50508035926020909101359150565b60008060008060008060008060e0898b03121561350757600080fd5b8835613512816132f5565b97506020890135613522816132f5565b96506040890135613532816132f5565b95506060890135613542816132f5565b94506080890135935060a0890135925060c08901356001600160401b038082111561356c57600080fd5b818b0191508b601f83011261358057600080fd5b81358181111561358f57600080fd5b8c60208285010111156135a157600080fd5b6020830194508093505050509295985092959890939650565b600080602083850312156135cd57600080fd5b82356001600160401b03808211156135e457600080fd5b818501915085601f8301126135f857600080fd5b81358181111561360757600080fd5b8660208260061b850101111561361c57600080fd5b60209290920196919550909350505050565b60006080828403121561364057600080fd5b50919050565b60008060006060848603121561365b57600080fd5b83359250602084013561366d816132f5565b91506040840135613447816132f5565b6000806040838503121561369057600080fd5b823561369b816132f5565b9150602083013561335b816132f5565b6000602082840312156136bd57600080fd5b5051919050565b600181811c908216806136d857607f821691505b60208210810361364057634e487b7160e01b600052602260045260246000fd5b634e487b7160e01b600052601160045260246000fd5b80820180821115610973576109736136f8565b60006020828403121561373357600080fd5b815160ff81168114610a3857600080fd5b6020808252600a908201526927a7262cafa7aba722a960b11b604082015260600190565b81810381811115610973576109736136f8565b6006811061379957634e487b7160e01b600052602160045260246000fd5b9052565b60208101610973828461377b565b600080604083850312156137be57600080fd5b505080516020909101519092909150565b6000826137ec57634e487b7160e01b600052601260045260246000fd5b500490565b6001600160a01b0392831681529116602082015260400190565b6001600160a01b03929092168252602082015260400190565b60006020828403121561383657600080fd5b8151610a38816133c4565b8183823760009101908152919050565b634e487b7160e01b600052603260045260246000fd5b600060c08201905060018060a01b038086168352845160208401528060208601511660408401528060408601511660608401525061ffff6060850151166080830152611d0e60a083018461377b565b60008160001904831182151516156138d0576138d06136f8565b500290565b76020b1b1b2b9b9a1b7b73a3937b61d1030b1b1b7bab73a1604d1b815260008351613907816017850160208801613285565b7001034b99036b4b9b9b4b733903937b6329607d1b6017918401918201528351613938816028840160208801613285565b01602801949350505050565b634e487b7160e01b600052604160045260246000fd5b604051608081016001600160401b038111828210171561397c5761397c613944565b60405290565b60405160a081016001600160401b038111828210171561397c5761397c613944565b604051601f8201601f191681016001600160401b03811182821017156139cc576139cc613944565b604052919050565b6000608082840312156139e657600080fd5b6139ee61395a565b905081518152602080830151818301526040830151613a0c816132f5565b604083015260608301516001600160401b0380821115613a2b57600080fd5b818501915085601f830112613a3f57600080fd5b815181811115613a5157613a51613944565b613a63601f8201601f191685016139a4565b91508082528684828501011115613a7957600080fd5b613a8881858401868601613285565b50606084015250909392505050565b600060208284031215613aa957600080fd5b81516001600160401b0380821115613ac057600080fd5b9083019060a08286031215613ad457600080fd5b613adc613982565b8251613ae7816132f5565b808252506020830151602082015260408301516040820152606083015182811115613b1157600080fd5b613b1d878286016139d4565b606083015250608083015182811115613b3557600080fd5b613b41878286016139d4565b60808301525095945050505050565b600081613b5f57613b5f6136f8565b506000190190565b60008251613b79818460208701613285565b919091019291505056feaf290d8680820aad922855f39b306097b20e28774d6c1ad35a20325630c3a02c8b5b16d04624687fcf0d0228f19993c9157c1ed07b41d8d430fd9100eb099fe8a2e156cbd72e7efc53149022996849380cdc926c5a894ce7fcd28079f0bf7a36ddf252ad1be2c89b69c2b068fc378daa952ba7f163c4a11628f55a4df523b3efdcbc1c05240f31ff3ad067ef1ee35ce4997762752e3a095284754544f4c709d7a264697066735822122071ee011c8879d58f57ae1268c47ec1c3c1ad0c210545f7a1377e2482f48573c064736f6c63430008100033af290d8680820aad922855f39b306097b20e28774d6c1ad35a20325630c3a02c8b5b16d04624687fcf0d0228f19993c9157c1ed07b41d8d430fd9100eb099fe8",
  "devdoc": {
    "kind": "dev",
    "methods": {
      "acceptOwnership()": {
        "details": "Accept transfer of ownership of the contract. Can only be called by the pendingOwner."
      },
      "allowance(address,address)": {
        "details": "See {IERC20-allowance}."
      },
      "approve(address,uint256)": {
        "details": "See {IERC20-approve}. NOTE: If `amount` is the maximum `uint256`, the allowance is not updated on `transferFrom`. This is semantically equivalent to an infinite approval. Requirements: - `spender` cannot be the zero address."
      },
      "balanceOf(address)": {
        "details": "See {IERC20-balanceOf}."
      },
      "decimals()": {
        "details": "Returns the number of decimals used to get its user representation. For example, if `decimals` equals `2`, a balance of `505` tokens should be displayed to a user as `5.05` (`505 / 10 ** 2`). Tokens usually opt for a value of 18, imitating the relationship between Ether and Wei. This is the value {ERC20} uses, unless this function is overridden; NOTE: This information is only used for _display_ purposes: it in no way affects any of the arithmetic of the contract, including {IERC20-balanceOf} and {IERC20-transfer}."
      },
      "decreaseAllowance(address,uint256)": {
        "details": "Atomically decreases the allowance granted to `spender` by the caller. This is an alternative to {approve} that can be used as a mitigation for problems described in {IERC20-approve}. Emits an {Approval} event indicating the updated allowance. Requirements: - `spender` cannot be the zero address. - `spender` must have allowance for the caller of at least `subtractedValue`."
      },
      "getRoleAdmin(bytes32)": {
        "details": "Returns the admin role that controls `role`. See {grantRole} and {revokeRole}. To change a role's admin, use {_setRoleAdmin}."
      },
      "grantRole(bytes32,address)": {
        "details": "Grants `role` to `account`. If `account` had not been already granted `role`, emits a {RoleGranted} event. Requirements: - the caller must have ``role``'s admin role. May emit a {RoleGranted} event."
      },
      "hasRole(bytes32,address)": {
        "details": "Returns `true` if `account` has been granted `role`."
      },
      "increaseAllowance(address,uint256)": {
        "details": "Atomically increases the allowance granted to `spender` by the caller. This is an alternative to {approve} that can be used as a mitigation for problems described in {IERC20-approve}. Emits an {Approval} event indicating the updated allowance. Requirements: - `spender` cannot be the zero address."
      },
      "name()": {
        "details": "Returns the name of the token."
      },
      "redeem()": {
        "details": "safest UI method"
      },
      "renounceRole(bytes32,address)": {
        "details": "Revokes `role` from the calling account. Roles are often managed via {grantRole} and {revokeRole}: this function's purpose is to provide a mechanism for accounts to lose their privileges if they are compromised (such as when a trusted device is misplaced). If the calling account had been revoked `role`, emits a {RoleRevoked} event. Requirements: - the caller must be `account`. May emit a {RoleRevoked} event."
      },
      "revokeRole(bytes32,address)": {
        "details": "Revokes `role` from `account`. If `account` had been granted `role`, emits a {RoleRevoked} event. Requirements: - the caller must have ``role``'s admin role. May emit a {RoleRevoked} event."
      },
      "sendTokens(address,address,address,address,uint256,uint256,bytes)": {
        "details": "Currently not verifying the middleware request calldata. Use very carefully",
        "params": {
          "allowanceTarget": "address to allow tokens to swipe",
          "amount": "amount of tokens to bridge",
          "data": "calldata of txn to be sent",
          "destinationAddress": "address of receiver",
          "destinationChainId": "chain Id of receiving chain",
          "socketRegistry": "address to send bridge txn to"
        }
      },
      "setPerformanceFee(uint256)": {
        "params": {
          "_performanceFee": "The new performance fee."
        }
      },
      "setTreasury(address)": {
        "params": {
          "_treasury": "New treasury address."
        }
      },
      "supportsInterface(bytes4)": {
        "details": "See {IERC165-supportsInterface}."
      },
      "symbol()": {
        "details": "Returns the symbol of the token, usually a shorter version of the name."
      },
      "transfer(address,uint256)": {
        "details": "See {IERC20-transfer}. Requirements: - `to` cannot be the zero address. - the caller must have a balance of at least `amount`."
      },
      "transferFrom(address,address,uint256)": {
        "details": "See {IERC20-transferFrom}. Emits an {Approval} event indicating the updated allowance. This is not required by the EIP. See the note at the beginning of {ERC20}. NOTE: Does not update the allowance if the current allowance is the maximum `uint256`. Requirements: - `from` and `to` cannot be the zero address. - `from` must have a balance of at least `amount`. - the caller must have allowance for ``from``'s tokens of at least `amount`."
      },
      "transferOwnership(address)": {
        "details": "Init transfer of ownership of the contract to a new account (`_pendingOwner`).",
        "params": {
          "_pendingOwner": "pending owner of contract Can only be called by the current owner."
        }
      }
    },
    "version": 1
  },
  "userdoc": {
    "events": {
      "SetPerformanceFee(uint256)": {
        "notice": "Emitted when the fee percentage is updated."
      }
    },
    "kind": "user",
    "methods": {
      "GUARDIAN()": {
        "notice": "Update vault params, perform time-sensitive operations, set manager"
      },
      "MANAGER()": {
        "notice": "Hot-wallet bots that route funds between vaults, rebalance and harvest strategies"
      },
      "owner()": {
        "notice": "Add and remove vaults and strategies and other critical operations behind timelock Default admin role There should only be one owner, so it is not a role"
      },
      "performanceFee()": {
        "notice": "The percentage of profit recognized each harvest to reserve as fees."
      },
      "redeemIsReady(address)": {
        "notice": "UTILS"
      },
      "sendTokens(address,address,address,address,uint256,uint256,bytes)": {
        "notice": "Sends tokens using Bungee middleware. Assumes tokens already present in contract. Manages allowance and transfer."
      },
      "setPerformanceFee(uint256)": {
        "notice": "Sets a new performanceFee."
      },
      "setTreasury(address)": {
        "notice": "Updates treasury."
      }
    },
    "version": 1
  },
  "storageLayout": {
    "storage": [
      {
        "astId": 24,
        "contract": "src/vaults/SectorCrossVault.sol:SectorCrossVault",
        "label": "_roles",
        "offset": 0,
        "slot": "0",
        "type": "t_mapping(t_bytes32,t_struct(RoleData)19_storage)"
      },
      {
        "astId": 12213,
        "contract": "src/vaults/SectorCrossVault.sol:SectorCrossVault",
        "label": "owner",
        "offset": 0,
        "slot": "1",
        "type": "t_address"
      },
      {
        "astId": 12215,
        "contract": "src/vaults/SectorCrossVault.sol:SectorCrossVault",
        "label": "pendingOwner",
        "offset": 0,
        "slot": "2",
        "type": "t_address"
      },
      {
        "astId": 12408,
        "contract": "src/vaults/SectorCrossVault.sol:SectorCrossVault",
        "label": "performanceFee",
        "offset": 0,
        "slot": "3",
        "type": "t_uint256"
      },
      {
        "astId": 12410,
        "contract": "src/vaults/SectorCrossVault.sol:SectorCrossVault",
        "label": "treasury",
        "offset": 0,
        "slot": "4",
        "type": "t_address"
      },
      {
        "astId": 521,
        "contract": "src/vaults/SectorCrossVault.sol:SectorCrossVault",
        "label": "_balances",
        "offset": 0,
        "slot": "5",
        "type": "t_mapping(t_address,t_uint256)"
      },
      {
        "astId": 527,
        "contract": "src/vaults/SectorCrossVault.sol:SectorCrossVault",
        "label": "_allowances",
        "offset": 0,
        "slot": "6",
        "type": "t_mapping(t_address,t_mapping(t_address,t_uint256))"
      },
      {
        "astId": 529,
        "contract": "src/vaults/SectorCrossVault.sol:SectorCrossVault",
        "label": "_totalSupply",
        "offset": 0,
        "slot": "7",
        "type": "t_uint256"
      },
      {
        "astId": 531,
        "contract": "src/vaults/SectorCrossVault.sol:SectorCrossVault",
        "label": "_name",
        "offset": 0,
        "slot": "8",
        "type": "t_string_storage"
      },
      {
        "astId": 533,
        "contract": "src/vaults/SectorCrossVault.sol:SectorCrossVault",
        "label": "_symbol",
        "offset": 0,
        "slot": "9",
        "type": "t_string_storage"
      },
      {
        "astId": 14864,
        "contract": "src/vaults/SectorCrossVault.sol:SectorCrossVault",
        "label": "withdrawTimestamp",
        "offset": 0,
        "slot": "10",
        "type": "t_uint256"
      },
      {
        "astId": 14866,
        "contract": "src/vaults/SectorCrossVault.sol:SectorCrossVault",
        "label": "withdrawSharePrice",
        "offset": 0,
        "slot": "11",
        "type": "t_uint256"
      },
      {
        "astId": 14868,
        "contract": "src/vaults/SectorCrossVault.sol:SectorCrossVault",
        "label": "pendingWithdrawal",
        "offset": 0,
        "slot": "12",
        "type": "t_uint256"
      },
      {
        "astId": 14873,
        "contract": "src/vaults/SectorCrossVault.sol:SectorCrossVault",
        "label": "withdrawLedger",
        "offset": 0,
        "slot": "13",
        "type": "t_mapping(t_address,t_struct(WithdrawRecord)14847_storage)"
      },
      {
        "astId": 12467,
        "contract": "src/vaults/SectorCrossVault.sol:SectorCrossVault",
        "label": "depositedVaults",
        "offset": 0,
        "slot": "14",
        "type": "t_mapping(t_address,t_struct(Vault)12487_storage)"
      },
      {
        "astId": 12470,
        "contract": "src/vaults/SectorCrossVault.sol:SectorCrossVault",
        "label": "vaultList",
        "offset": 0,
        "slot": "15",
        "type": "t_array(t_address)dyn_storage"
      },
      {
        "astId": 15587,
        "contract": "src/vaults/SectorCrossVault.sol:SectorCrossVault",
        "label": "harvestLedger",
        "offset": 0,
        "slot": "16",
        "type": "t_struct(HarvestLedger)15584_storage"
      },
      {
        "astId": 15590,
        "contract": "src/vaults/SectorCrossVault.sol:SectorCrossVault",
        "label": "emergencyEnabled",
        "offset": 0,
        "slot": "18",
        "type": "t_bool"
      }
    ],
    "types": {
      "t_address": {
        "encoding": "inplace",
        "label": "address",
        "numberOfBytes": "20"
      },
      "t_array(t_address)dyn_storage": {
        "base": "t_address",
        "encoding": "dynamic_array",
        "label": "address[]",
        "numberOfBytes": "32"
      },
      "t_bool": {
        "encoding": "inplace",
        "label": "bool",
        "numberOfBytes": "1"
      },
      "t_bytes32": {
        "encoding": "inplace",
        "label": "bytes32",
        "numberOfBytes": "32"
      },
      "t_mapping(t_address,t_bool)": {
        "encoding": "mapping",
        "key": "t_address",
        "label": "mapping(address => bool)",
        "numberOfBytes": "32",
        "value": "t_bool"
      },
      "t_mapping(t_address,t_mapping(t_address,t_uint256))": {
        "encoding": "mapping",
        "key": "t_address",
        "label": "mapping(address => mapping(address => uint256))",
        "numberOfBytes": "32",
        "value": "t_mapping(t_address,t_uint256)"
      },
      "t_mapping(t_address,t_struct(Vault)12487_storage)": {
        "encoding": "mapping",
        "key": "t_address",
        "label": "mapping(address => struct XChainIntegrator.Vault)",
        "numberOfBytes": "32",
        "value": "t_struct(Vault)12487_storage"
      },
      "t_mapping(t_address,t_struct(WithdrawRecord)14847_storage)": {
        "encoding": "mapping",
        "key": "t_address",
        "label": "mapping(address => struct WithdrawRecord)",
        "numberOfBytes": "32",
        "value": "t_struct(WithdrawRecord)14847_storage"
      },
      "t_mapping(t_address,t_uint256)": {
        "encoding": "mapping",
        "key": "t_address",
        "label": "mapping(address => uint256)",
        "numberOfBytes": "32",
        "value": "t_uint256"
      },
      "t_mapping(t_bytes32,t_struct(RoleData)19_storage)": {
        "encoding": "mapping",
        "key": "t_bytes32",
        "label": "mapping(bytes32 => struct AccessControl.RoleData)",
        "numberOfBytes": "32",
        "value": "t_struct(RoleData)19_storage"
      },
      "t_string_storage": {
        "encoding": "bytes",
        "label": "string",
        "numberOfBytes": "32"
      },
      "t_struct(HarvestLedger)15584_storage": {
        "encoding": "inplace",
        "label": "struct SectorCrossVault.HarvestLedger",
        "members": [
          {
            "astId": 15581,
            "contract": "src/vaults/SectorCrossVault.sol:SectorCrossVault",
            "label": "localDepositValue",
            "offset": 0,
            "slot": "0",
            "type": "t_uint256"
          },
          {
            "astId": 15583,
            "contract": "src/vaults/SectorCrossVault.sol:SectorCrossVault",
            "label": "count",
            "offset": 0,
            "slot": "1",
            "type": "t_uint256"
          }
        ],
        "numberOfBytes": "64"
      },
      "t_struct(RoleData)19_storage": {
        "encoding": "inplace",
        "label": "struct AccessControl.RoleData",
        "members": [
          {
            "astId": 16,
            "contract": "src/vaults/SectorCrossVault.sol:SectorCrossVault",
            "label": "members",
            "offset": 0,
            "slot": "0",
            "type": "t_mapping(t_address,t_bool)"
          },
          {
            "astId": 18,
            "contract": "src/vaults/SectorCrossVault.sol:SectorCrossVault",
            "label": "adminRole",
            "offset": 0,
            "slot": "1",
            "type": "t_bytes32"
          }
        ],
        "numberOfBytes": "64"
      },
      "t_struct(Vault)12487_storage": {
        "encoding": "inplace",
        "label": "struct XChainIntegrator.Vault",
        "members": [
          {
            "astId": 12482,
            "contract": "src/vaults/SectorCrossVault.sol:SectorCrossVault",
            "label": "amount",
            "offset": 0,
            "slot": "0",
            "type": "t_uint256"
          },
          {
            "astId": 12484,
            "contract": "src/vaults/SectorCrossVault.sol:SectorCrossVault",
            "label": "chainId",
            "offset": 0,
            "slot": "1",
            "type": "t_uint16"
          },
          {
            "astId": 12486,
            "contract": "src/vaults/SectorCrossVault.sol:SectorCrossVault",
            "label": "allowed",
            "offset": 2,
            "slot": "1",
            "type": "t_bool"
          }
        ],
        "numberOfBytes": "64"
      },
      "t_struct(WithdrawRecord)14847_storage": {
        "encoding": "inplace",
        "label": "struct WithdrawRecord",
        "members": [
          {
            "astId": 14844,
            "contract": "src/vaults/SectorCrossVault.sol:SectorCrossVault",
            "label": "timestamp",
            "offset": 0,
            "slot": "0",
            "type": "t_uint256"
          },
          {
            "astId": 14846,
            "contract": "src/vaults/SectorCrossVault.sol:SectorCrossVault",
            "label": "amount",
            "offset": 0,
            "slot": "1",
            "type": "t_uint256"
          }
        ],
        "numberOfBytes": "64"
      },
      "t_uint16": {
        "encoding": "inplace",
        "label": "uint16",
        "numberOfBytes": "2"
      },
      "t_uint256": {
        "encoding": "inplace",
        "label": "uint256",
        "numberOfBytes": "32"
      }
    }
  }
}